{
  "_format": "hh-sol-artifact-1",
  "contractName": "DAORegistry",
  "sourceName": "contracts/dao/DAORegistry.sol",
  "abi": [
    {
      "anonymous": false,
      "inputs": [
        {
          "indexed": true,
          "internalType": "contract IERC721",
          "name": "nft",
          "type": "address"
        },
        {
          "indexed": false,
          "internalType": "string",
          "name": "name",
          "type": "string"
        },
        {
          "indexed": false,
          "internalType": "string",
          "name": "facebook",
          "type": "string"
        },
        {
          "indexed": false,
          "internalType": "string",
          "name": "twitter",
          "type": "string"
        }
      ],
      "name": "CreateDAO",
      "type": "event"
    },
    {
      "anonymous": false,
      "inputs": [
        {
          "indexed": true,
          "internalType": "address",
          "name": "previousOwner",
          "type": "address"
        },
        {
          "indexed": true,
          "internalType": "address",
          "name": "newOwner",
          "type": "address"
        }
      ],
      "name": "OwnershipTransferred",
      "type": "event"
    },
    {
      "anonymous": false,
      "inputs": [
        {
          "indexed": false,
          "internalType": "contract IERC721",
          "name": "nft",
          "type": "address"
        },
        {
          "indexed": false,
          "internalType": "bool",
          "name": "enabled",
          "type": "bool"
        }
      ],
      "name": "UpdateWhiteList",
      "type": "event"
    },
    {
      "inputs": [
        {
          "internalType": "contract IERC721",
          "name": "nft",
          "type": "address"
        },
        {
          "internalType": "string",
          "name": "name",
          "type": "string"
        },
        {
          "internalType": "string",
          "name": "facebook",
          "type": "string"
        },
        {
          "internalType": "string",
          "name": "twitter",
          "type": "string"
        }
      ],
      "name": "createDao",
      "outputs": [],
      "stateMutability": "nonpayable",
      "type": "function"
    },
    {
      "inputs": [
        {
          "internalType": "contract IERC721",
          "name": "",
          "type": "address"
        }
      ],
      "name": "daoList",
      "outputs": [
        {
          "internalType": "bool",
          "name": "",
          "type": "bool"
        }
      ],
      "stateMutability": "view",
      "type": "function"
    },
    {
      "inputs": [],
      "name": "initialize",
      "outputs": [],
      "stateMutability": "nonpayable",
      "type": "function"
    },
    {
      "inputs": [],
      "name": "owner",
      "outputs": [
        {
          "internalType": "address",
          "name": "",
          "type": "address"
        }
      ],
      "stateMutability": "view",
      "type": "function"
    },
    {
      "inputs": [],
      "name": "renounceOwnership",
      "outputs": [],
      "stateMutability": "nonpayable",
      "type": "function"
    },
    {
      "inputs": [
        {
          "internalType": "contract IERC721",
          "name": "nft",
          "type": "address"
        },
        {
          "internalType": "bool",
          "name": "enabled",
          "type": "bool"
        }
      ],
      "name": "setWhiteList",
      "outputs": [],
      "stateMutability": "nonpayable",
      "type": "function"
    },
    {
      "inputs": [
        {
          "internalType": "address",
          "name": "newOwner",
          "type": "address"
        }
      ],
      "name": "transferOwnership",
      "outputs": [],
      "stateMutability": "nonpayable",
      "type": "function"
    },
    {
      "inputs": [
        {
          "internalType": "contract IERC721",
          "name": "",
          "type": "address"
        }
      ],
      "name": "whitelist",
      "outputs": [
        {
          "internalType": "bool",
          "name": "",
          "type": "bool"
        }
      ],
      "stateMutability": "view",
      "type": "function"
    }
  ],
  "bytecode": "0x608060405234801561001057600080fd5b50610c07806100206000396000f3fe608060405234801561001057600080fd5b50600436106100885760003560e01c80638da5cb5b1161005b5780638da5cb5b146100ea5780638f62d8c8146101125780639b19251a14610125578063f2fde38b1461014857600080fd5b80636659585b1461008d578063715018a6146100c55780638129fc1c146100cf5780638d14e127146100d7575b600080fd5b6100b061009b3660046109c6565b60666020526000908152604090205460ff1681565b60405190151581526020015b60405180910390f35b6100cd61015b565b005b6100cd6101ed565b6100cd6100e53660046109e9565b610311565b60335460405173ffffffffffffffffffffffffffffffffffffffff90911681526020016100bc565b6100cd610120366004610a25565b610420565b6100b06101333660046109c6565b60656020526000908152604090205460ff1681565b6100cd6101563660046109c6565b610647565b60335473ffffffffffffffffffffffffffffffffffffffff1633146101e1576040517f08c379a000000000000000000000000000000000000000000000000000000000815260206004820181905260248201527f4f776e61626c653a2063616c6c6572206973206e6f7420746865206f776e657260448201526064015b60405180910390fd5b6101eb6000610770565b565b600054610100900460ff166102085760005460ff161561020c565b303b155b610298576040517f08c379a000000000000000000000000000000000000000000000000000000000815260206004820152602e60248201527f496e697469616c697a61626c653a20636f6e747261637420697320616c72656160448201527f647920696e697469616c697a656400000000000000000000000000000000000060648201526084016101d8565b600054610100900460ff161580156102d757600080547fffffffffffffffffffffffffffffffffffffffffffffffffffffffffffff0000166101011790555b6102df6107e7565b801561030e57600080547fffffffffffffffffffffffffffffffffffffffffffffffffffffffffffff00ff1690555b50565b60335473ffffffffffffffffffffffffffffffffffffffff163314610392576040517f08c379a000000000000000000000000000000000000000000000000000000000815260206004820181905260248201527f4f776e61626c653a2063616c6c6572206973206e6f7420746865206f776e657260448201526064016101d8565b73ffffffffffffffffffffffffffffffffffffffff821660008181526065602090815260409182902080547fffffffffffffffffffffffffffffffffffffffffffffffffffffffffffffff00168515159081179091558251938452908301527fc551bbb22d0406dbfb8b6b7740cc521bcf44e1106029cf899c19b6a8e4c99d51910160405180910390a15050565b73ffffffffffffffffffffffffffffffffffffffff841660009081526066602052604090205460ff16156104b0576040517f08c379a000000000000000000000000000000000000000000000000000000000815260206004820152600f60248201527f616c72656164792065786973746564000000000000000000000000000000000060448201526064016101d8565b6040517f70a0823100000000000000000000000000000000000000000000000000000000815233600482015260009073ffffffffffffffffffffffffffffffffffffffff8616906370a082319060240160206040518083038186803b15801561051857600080fd5b505afa15801561052c573d6000803e3d6000fd5b505050506040513d601f19601f820116820180604052508101906105509190610abc565b116105b7576040517f08c379a000000000000000000000000000000000000000000000000000000000815260206004820152601c60248201527f6174206c65617374203120746f6b656e2069732072657175697265640000000060448201526064016101d8565b73ffffffffffffffffffffffffffffffffffffffff84166000818152606660205260409081902080547fffffffffffffffffffffffffffffffffffffffffffffffffffffffffffffff00166001179055517f32cb208022b11e7641b3526077132b50f64107387c819140afdc05afe9dec81f9061063990869086908690610b3d565b60405180910390a250505050565b60335473ffffffffffffffffffffffffffffffffffffffff1633146106c8576040517f08c379a000000000000000000000000000000000000000000000000000000000815260206004820181905260248201527f4f776e61626c653a2063616c6c6572206973206e6f7420746865206f776e657260448201526064016101d8565b73ffffffffffffffffffffffffffffffffffffffff811661076b576040517f08c379a000000000000000000000000000000000000000000000000000000000815260206004820152602660248201527f4f776e61626c653a206e6577206f776e657220697320746865207a65726f206160448201527f646472657373000000000000000000000000000000000000000000000000000060648201526084016101d8565b61030e815b6033805473ffffffffffffffffffffffffffffffffffffffff8381167fffffffffffffffffffffffff0000000000000000000000000000000000000000831681179093556040519116919082907f8be0079c531659141344cd1fd0a4f28419497f9722a3daafe3b4186f6b6457e090600090a35050565b600054610100900460ff1661087e576040517f08c379a000000000000000000000000000000000000000000000000000000000815260206004820152602b60248201527f496e697469616c697a61626c653a20636f6e7472616374206973206e6f74206960448201527f6e697469616c697a696e6700000000000000000000000000000000000000000060648201526084016101d8565b6101eb600054610100900460ff16610918576040517f08c379a000000000000000000000000000000000000000000000000000000000815260206004820152602b60248201527f496e697469616c697a61626c653a20636f6e7472616374206973206e6f74206960448201527f6e697469616c697a696e6700000000000000000000000000000000000000000060648201526084016101d8565b6101eb33610770565b600082601f830112610931578081fd5b813567ffffffffffffffff8082111561094c5761094c610b80565b604051601f83017fffffffffffffffffffffffffffffffffffffffffffffffffffffffffffffffe0908116603f0116810190828211818310171561099257610992610b80565b816040528381528660208588010111156109aa578485fd5b8360208701602083013792830160200193909352509392505050565b6000602082840312156109d7578081fd5b81356109e281610baf565b9392505050565b600080604083850312156109fb578081fd5b8235610a0681610baf565b915060208301358015158114610a1a578182fd5b809150509250929050565b60008060008060808587031215610a3a578182fd5b8435610a4581610baf565b9350602085013567ffffffffffffffff80821115610a61578384fd5b610a6d88838901610921565b94506040870135915080821115610a82578384fd5b610a8e88838901610921565b93506060870135915080821115610aa3578283fd5b50610ab087828801610921565b91505092959194509250565b600060208284031215610acd578081fd5b5051919050565b60008151808452815b81811015610af957602081850181015186830182015201610add565b81811115610b0a5782602083870101525b50601f017fffffffffffffffffffffffffffffffffffffffffffffffffffffffffffffffe0169290920160200192915050565b606081526000610b506060830186610ad4565b8281036020840152610b628186610ad4565b90508281036040840152610b768185610ad4565b9695505050505050565b7f4e487b7100000000000000000000000000000000000000000000000000000000600052604160045260246000fd5b73ffffffffffffffffffffffffffffffffffffffff8116811461030e57600080fdfea2646970667358221220e7233bceddb4dc2fe91e61ff07bd45ce55b2a836ce8d8834dc51eade7c33f27c64736f6c63430008040033",
  "linkReferences": {},
  "deployedLinkReferences": {}
}