{
  "_format": "hh-sol-artifact-1",
  "contractName": "Market",
  "sourceName": "contracts/marketplace/Market.sol",
  "abi": [
    {
      "inputs": [],
      "stateMutability": "nonpayable",
      "type": "constructor"
    },
    {
      "anonymous": false,
      "inputs": [
        {
          "indexed": false,
          "internalType": "uint256",
          "name": "orderId",
          "type": "uint256"
        },
        {
          "indexed": false,
          "internalType": "address",
          "name": "nft",
          "type": "address"
        },
        {
          "indexed": false,
          "internalType": "uint256",
          "name": "tokenId",
          "type": "uint256"
        },
        {
          "indexed": false,
          "internalType": "uint256",
          "name": "remains",
          "type": "uint256"
        }
      ],
      "name": "CancelOrder",
      "type": "event"
    },
    {
      "anonymous": false,
      "inputs": [
        {
          "indexed": false,
          "internalType": "uint256",
          "name": "orderId",
          "type": "uint256"
        },
        {
          "indexed": false,
          "internalType": "address",
          "name": "seller",
          "type": "address"
        },
        {
          "indexed": false,
          "internalType": "address",
          "name": "nft",
          "type": "address"
        },
        {
          "indexed": false,
          "internalType": "uint256",
          "name": "tokenId",
          "type": "uint256"
        },
        {
          "indexed": false,
          "internalType": "uint256",
          "name": "amount",
          "type": "uint256"
        }
      ],
      "name": "MakeOrder",
      "type": "event"
    },
    {
      "anonymous": false,
      "inputs": [
        {
          "indexed": true,
          "internalType": "address",
          "name": "previousOwner",
          "type": "address"
        },
        {
          "indexed": true,
          "internalType": "address",
          "name": "newOwner",
          "type": "address"
        }
      ],
      "name": "OwnershipTransferred",
      "type": "event"
    },
    {
      "anonymous": false,
      "inputs": [
        {
          "indexed": false,
          "internalType": "address",
          "name": "nft",
          "type": "address"
        },
        {
          "indexed": false,
          "internalType": "bool",
          "name": "supported",
          "type": "bool"
        }
      ],
      "name": "SetSupportedNFT",
      "type": "event"
    },
    {
      "anonymous": false,
      "inputs": [
        {
          "indexed": false,
          "internalType": "uint256",
          "name": "orderId",
          "type": "uint256"
        },
        {
          "indexed": false,
          "internalType": "address",
          "name": "buyer",
          "type": "address"
        },
        {
          "indexed": false,
          "internalType": "address",
          "name": "nft",
          "type": "address"
        },
        {
          "indexed": false,
          "internalType": "uint256",
          "name": "tokenId",
          "type": "uint256"
        },
        {
          "indexed": false,
          "internalType": "uint256",
          "name": "amount",
          "type": "uint256"
        },
        {
          "indexed": false,
          "internalType": "uint256",
          "name": "rpcAmount",
          "type": "uint256"
        }
      ],
      "name": "TakeOrder",
      "type": "event"
    },
    {
      "inputs": [],
      "name": "RPC",
      "outputs": [
        {
          "internalType": "contract IERC20",
          "name": "",
          "type": "address"
        }
      ],
      "stateMutability": "view",
      "type": "function"
    },
    {
      "inputs": [
        {
          "internalType": "uint256",
          "name": "orderId",
          "type": "uint256"
        }
      ],
      "name": "cancelOrder",
      "outputs": [
        {
          "internalType": "bool",
          "name": "",
          "type": "bool"
        }
      ],
      "stateMutability": "nonpayable",
      "type": "function"
    },
    {
      "inputs": [
        {
          "internalType": "uint256",
          "name": "orderId",
          "type": "uint256"
        }
      ],
      "name": "getPrice",
      "outputs": [
        {
          "internalType": "uint256",
          "name": "",
          "type": "uint256"
        }
      ],
      "stateMutability": "view",
      "type": "function"
    },
    {
      "inputs": [
        {
          "internalType": "bool",
          "name": "is721",
          "type": "bool"
        },
        {
          "internalType": "address",
          "name": "nft",
          "type": "address"
        },
        {
          "internalType": "uint256",
          "name": "tokenId",
          "type": "uint256"
        },
        {
          "internalType": "uint256",
          "name": "tokenAmount",
          "type": "uint256"
        },
        {
          "internalType": "uint256",
          "name": "minPrice",
          "type": "uint256"
        },
        {
          "internalType": "uint256",
          "name": "maxPrice",
          "type": "uint256"
        },
        {
          "internalType": "uint256",
          "name": "startBlock",
          "type": "uint256"
        },
        {
          "internalType": "uint256",
          "name": "duration",
          "type": "uint256"
        }
      ],
      "name": "makeOrder",
      "outputs": [
        {
          "internalType": "uint256",
          "name": "",
          "type": "uint256"
        }
      ],
      "stateMutability": "nonpayable",
      "type": "function"
    },
    {
      "inputs": [
        {
          "internalType": "address",
          "name": "operator",
          "type": "address"
        },
        {
          "internalType": "address",
          "name": "",
          "type": "address"
        },
        {
          "internalType": "uint256[]",
          "name": "",
          "type": "uint256[]"
        },
        {
          "internalType": "uint256[]",
          "name": "",
          "type": "uint256[]"
        },
        {
          "internalType": "bytes",
          "name": "",
          "type": "bytes"
        }
      ],
      "name": "onERC1155BatchReceived",
      "outputs": [
        {
          "internalType": "bytes4",
          "name": "",
          "type": "bytes4"
        }
      ],
      "stateMutability": "view",
      "type": "function"
    },
    {
      "inputs": [
        {
          "internalType": "address",
          "name": "operator",
          "type": "address"
        },
        {
          "internalType": "address",
          "name": "",
          "type": "address"
        },
        {
          "internalType": "uint256",
          "name": "",
          "type": "uint256"
        },
        {
          "internalType": "uint256",
          "name": "",
          "type": "uint256"
        },
        {
          "internalType": "bytes",
          "name": "",
          "type": "bytes"
        }
      ],
      "name": "onERC1155Received",
      "outputs": [
        {
          "internalType": "bytes4",
          "name": "",
          "type": "bytes4"
        }
      ],
      "stateMutability": "view",
      "type": "function"
    },
    {
      "inputs": [
        {
          "internalType": "address",
          "name": "operator",
          "type": "address"
        },
        {
          "internalType": "address",
          "name": "",
          "type": "address"
        },
        {
          "internalType": "uint256",
          "name": "",
          "type": "uint256"
        },
        {
          "internalType": "bytes",
          "name": "",
          "type": "bytes"
        }
      ],
      "name": "onERC721Received",
      "outputs": [
        {
          "internalType": "bytes4",
          "name": "",
          "type": "bytes4"
        }
      ],
      "stateMutability": "view",
      "type": "function"
    },
    {
      "inputs": [
        {
          "internalType": "uint256",
          "name": "orderId",
          "type": "uint256"
        }
      ],
      "name": "orderBuyers",
      "outputs": [
        {
          "internalType": "address[]",
          "name": "",
          "type": "address[]"
        }
      ],
      "stateMutability": "view",
      "type": "function"
    },
    {
      "inputs": [
        {
          "internalType": "uint256",
          "name": "",
          "type": "uint256"
        }
      ],
      "name": "orders",
      "outputs": [
        {
          "internalType": "enum MarketState.OrderStatus",
          "name": "status",
          "type": "uint8"
        },
        {
          "internalType": "uint256",
          "name": "tokenId",
          "type": "uint256"
        },
        {
          "internalType": "address",
          "name": "nft",
          "type": "address"
        },
        {
          "internalType": "bool",
          "name": "is721",
          "type": "bool"
        },
        {
          "internalType": "address",
          "name": "seller",
          "type": "address"
        },
        {
          "internalType": "uint256",
          "name": "initAmount",
          "type": "uint256"
        },
        {
          "internalType": "uint256",
          "name": "minPrice",
          "type": "uint256"
        },
        {
          "internalType": "uint256",
          "name": "maxPrice",
          "type": "uint256"
        },
        {
          "internalType": "uint256",
          "name": "startBlock",
          "type": "uint256"
        },
        {
          "internalType": "uint256",
          "name": "duration",
          "type": "uint256"
        },
        {
          "internalType": "uint256",
          "name": "amount",
          "type": "uint256"
        },
        {
          "internalType": "uint256",
          "name": "finalPrice",
          "type": "uint256"
        }
      ],
      "stateMutability": "view",
      "type": "function"
    },
    {
      "inputs": [],
      "name": "ordersNum",
      "outputs": [
        {
          "internalType": "uint256",
          "name": "",
          "type": "uint256"
        }
      ],
      "stateMutability": "view",
      "type": "function"
    },
    {
      "inputs": [],
      "name": "owner",
      "outputs": [
        {
          "internalType": "address",
          "name": "",
          "type": "address"
        }
      ],
      "stateMutability": "view",
      "type": "function"
    },
    {
      "inputs": [],
      "name": "renounceOwnership",
      "outputs": [],
      "stateMutability": "nonpayable",
      "type": "function"
    },
    {
      "inputs": [],
      "name": "rpcRouter",
      "outputs": [
        {
          "internalType": "contract IRPCRouter",
          "name": "",
          "type": "address"
        }
      ],
      "stateMutability": "view",
      "type": "function"
    },
    {
      "inputs": [
        {
          "internalType": "address",
          "name": "nft",
          "type": "address"
        },
        {
          "internalType": "bool",
          "name": "supported",
          "type": "bool"
        }
      ],
      "name": "setSupportedNFT",
      "outputs": [],
      "stateMutability": "nonpayable",
      "type": "function"
    },
    {
      "inputs": [
        {
          "internalType": "address",
          "name": "",
          "type": "address"
        }
      ],
      "name": "supportedNFT",
      "outputs": [
        {
          "internalType": "bool",
          "name": "",
          "type": "bool"
        }
      ],
      "stateMutability": "view",
      "type": "function"
    },
    {
      "inputs": [
        {
          "internalType": "bytes4",
          "name": "interfaceId",
          "type": "bytes4"
        }
      ],
      "name": "supportsInterface",
      "outputs": [
        {
          "internalType": "bool",
          "name": "",
          "type": "bool"
        }
      ],
      "stateMutability": "pure",
      "type": "function"
    },
    {
      "inputs": [
        {
          "internalType": "uint256",
          "name": "orderId",
          "type": "uint256"
        },
        {
          "internalType": "uint256",
          "name": "amountOut",
          "type": "uint256"
        }
      ],
      "name": "takeOrder",
      "outputs": [
        {
          "internalType": "bool",
          "name": "",
          "type": "bool"
        }
      ],
      "stateMutability": "nonpayable",
      "type": "function"
    },
    {
      "inputs": [
        {
          "internalType": "address",
          "name": "newOwner",
          "type": "address"
        }
      ],
      "name": "transferOwnership",
      "outputs": [],
      "stateMutability": "nonpayable",
      "type": "function"
    }
  ],
  "bytecode": "0x608060405234801561001057600080fd5b50600080546001600160a01b031916339081178255604051829190819083907f8be0079c531659141344cd1fd0a4f28419497f9722a3daafe3b4186f6b6457e0908290a350600180546001600160a01b039384166001600160a01b0319918216179091556002805492909316911617905561219e806100906000396000f3fe608060405234801561001057600080fd5b50600436106101365760003560e01c80638da5cb5b116100b2578063c1e34a7411610081578063f23a6e6111610066578063f23a6e6114610391578063f2fde38b146103a4578063f972e962146103b757600080fd5b8063c1e34a741461036b578063e75722301461037e57600080fd5b80638da5cb5b14610276578063968c48df14610294578063a85c38ef146102a7578063bc197c811461035857600080fd5b80633d42e58811610109578063514fcac7116100ee578063514fcac714610236578063566a7ac314610249578063715018a61461026c57600080fd5b80633d42e588146101ff5780634a3705731461021657600080fd5b806301ffc9a71461013b578063150b7a021461016357806315ceb862146101a75780632eab93cb146101ec575b600080fd5b61014e610149366004611ea0565b6103d7565b60405190151581526020015b60405180910390f35b610176610171366004611d25565b610470565b6040517fffffffff00000000000000000000000000000000000000000000000000000000909116815260200161015a565b6001546101c79073ffffffffffffffffffffffffffffffffffffffff1681565b60405173ffffffffffffffffffffffffffffffffffffffff909116815260200161015a565b61014e6101fa366004611ef8565b6104c3565b61020860035481565b60405190815260200161015a565b6002546101c79073ffffffffffffffffffffffffffffffffffffffff1681565b61014e610244366004611ee0565b610a23565b61014e610257366004611c54565b60056020526000908152604090205460ff1681565b610274610e2c565b005b60005473ffffffffffffffffffffffffffffffffffffffff166101c7565b6102746102a2366004611e08565b610f1c565b6103406102b5366004611ee0565b600460208190526000918252604090912080546001820154600283015460038401549484015460058501546006860154600787015460088801546009890154600a9099015460ff9889169a979973ffffffffffffffffffffffffffffffffffffffff8089169a740100000000000000000000000000000000000000009099049098169890971696908c565b60405161015a9c9b9a99989796959493929190611f96565b610176610366366004611c6e565b61102b565b610208610379366004611e3a565b611081565b61020861038c366004611ee0565b611697565b61017661039f366004611d92565b611871565b6102746103b2366004611c54565b6118c5565b6103ca6103c5366004611ee0565b611a76565b60405161015a9190611f3c565b60007f150b7a02000000000000000000000000000000000000000000000000000000007fffffffff000000000000000000000000000000000000000000000000000000008316148061046a57507f4e2312e0000000000000000000000000000000000000000000000000000000007fffffffff000000000000000000000000000000000000000000000000000000008316145b92915050565b60003073ffffffffffffffffffffffffffffffffffffffff871614610497575060006104ba565b507f150b7a02000000000000000000000000000000000000000000000000000000005b95945050505050565b60008281526004602052604081206009810154831115610544576040517f08c379a000000000000000000000000000000000000000000000000000000000815260206004820152601660248201527f696e73756666696369656e7420616d6f756e744f75740000000000000000000060448201526064015b60405180910390fd5b600083116105ae576040517f08c379a000000000000000000000000000000000000000000000000000000000815260206004820152601160248201527f696c6c6567616c20616d6f756e744f7574000000000000000000000000000000604482015260640161053b565b6000815460ff1660048111156105ed577f4e487b7100000000000000000000000000000000000000000000000000000000600052602160045260246000fd5b148061063557506001815460ff166004811115610633577f4e487b7100000000000000000000000000000000000000000000000000000000600052602160045260246000fd5b145b61069b576040517f08c379a000000000000000000000000000000000000000000000000000000000815260206004820152601460248201527f696c6c6567616c206f7264657220737461747573000000000000000000000000604482015260640161053b565b60006106a685611697565b905060006106b485836120ac565b60015460038501546040517f8adef4a500000000000000000000000000000000000000000000000000000000815233600482015273ffffffffffffffffffffffffffffffffffffffff9182166024820152604481018490529293501690638adef4a5906064016040805180830381600087803b15801561073357600080fd5b505af1158015610747573d6000803e3d6000fd5b505050506040513d601f19601f8201168201806040525081019061076b9190611f19565b5050600283015474010000000000000000000000000000000000000000900460ff161561082f57600283015460018401546040517f42842e0e000000000000000000000000000000000000000000000000000000008152306004820152336024820152604481019190915273ffffffffffffffffffffffffffffffffffffffff909116906342842e0e90606401600060405180830381600087803b15801561081257600080fd5b505af1158015610826573d6000803e3d6000fd5b505050506108dd565b600283015460018401546040517ff242432a00000000000000000000000000000000000000000000000000000000815230600482015233602482015260448101919091526064810187905260a06084820152600060a482015273ffffffffffffffffffffffffffffffffffffffff9091169063f242432a9060c401600060405180830381600087803b1580156108c457600080fd5b505af11580156108d8573d6000803e3d6000fd5b505050505b848360090160008282546108f191906120e9565b909155505060098301546109345782547fffffffffffffffffffffffffffffffffffffffffffffffffffffffffffffff00166002178355600a830182905561095e565b82547fffffffffffffffffffffffffffffffffffffffffffffffffffffffffffffff001660011783555b600b8301805460018082018355600092835260209283902090910180547fffffffffffffffffffffffff00000000000000000000000000000000000000001633908117909155600286015491860154604080518b81529485019290925273ffffffffffffffffffffffffffffffffffffffff9092169083015260608201526080810186905260a081018290527fb2b6e11a209ccdc19a4f6ef9f991fc44e313758777e4c448f2d1a91e2abd92079060c00160405180910390a150600195945050505050565b6000818152600460205260408120600381015473ffffffffffffffffffffffffffffffffffffffff163314610ab4576040517f08c379a000000000000000000000000000000000000000000000000000000000815260206004820152601060248201527f73686f756c642062652073656c6c657200000000000000000000000000000000604482015260640161053b565b6000815460ff166004811115610af3577f4e487b7100000000000000000000000000000000000000000000000000000000600052602160045260246000fd5b1480610b3b57506001815460ff166004811115610b39577f4e487b7100000000000000000000000000000000000000000000000000000000600052602160045260246000fd5b145b610ba1576040517f08c379a000000000000000000000000000000000000000000000000000000000815260206004820152601460248201527f696c6c6567616c206f7264657220737461747573000000000000000000000000604482015260640161053b565b600281015474010000000000000000000000000000000000000000900460ff1615610c6357600281015460018201546040517f42842e0e000000000000000000000000000000000000000000000000000000008152306004820152336024820152604481019190915273ffffffffffffffffffffffffffffffffffffffff909116906342842e0e90606401600060405180830381600087803b158015610c4657600080fd5b505af1158015610c5a573d6000803e3d6000fd5b50505050610d14565b6002810154600182015460098301546040517ff242432a0000000000000000000000000000000000000000000000000000000081523060048201523360248201526044810192909252606482015260a06084820152600060a482015273ffffffffffffffffffffffffffffffffffffffff9091169063f242432a9060c401600060405180830381600087803b158015610cfb57600080fd5b505af1158015610d0f573d6000803e3d6000fd5b505050505b600060098201819055815460ff166004811115610d5a577f4e487b7100000000000000000000000000000000000000000000000000000000600052602160045260246000fd5b1415610d8e5780547fffffffffffffffffffffffffffffffffffffffffffffffffffffffffffffff00166004178155610db8565b80547fffffffffffffffffffffffffffffffffffffffffffffffffffffffffffffff001660031781555b6002810154600182015460098301546040805187815273ffffffffffffffffffffffffffffffffffffffff909416602085015283019190915260608201527fbde5b95b9839d944eb224fb819f450d307071d6c4e709af4f4fe2d81d6acc4809060800160405180910390a150600192915050565b60005473ffffffffffffffffffffffffffffffffffffffff163314610ead576040517f08c379a000000000000000000000000000000000000000000000000000000000815260206004820181905260248201527f4f776e61626c653a2063616c6c6572206973206e6f7420746865206f776e6572604482015260640161053b565b6000805460405173ffffffffffffffffffffffffffffffffffffffff909116907f8be0079c531659141344cd1fd0a4f28419497f9722a3daafe3b4186f6b6457e0908390a3600080547fffffffffffffffffffffffff0000000000000000000000000000000000000000169055565b60005473ffffffffffffffffffffffffffffffffffffffff163314610f9d576040517f08c379a000000000000000000000000000000000000000000000000000000000815260206004820181905260248201527f4f776e61626c653a2063616c6c6572206973206e6f7420746865206f776e6572604482015260640161053b565b73ffffffffffffffffffffffffffffffffffffffff821660008181526005602090815260409182902080547fffffffffffffffffffffffffffffffffffffffffffffffffffffffffffffff00168515159081179091558251938452908301527fcc7f7c435af03f2c2f2a5dfc84ddce0660a628dcc938b91d536ce0b37435db8a910160405180910390a15050565b60003073ffffffffffffffffffffffffffffffffffffffff8a161461105257506000611075565b507fbc197c81000000000000000000000000000000000000000000000000000000005b98975050505050505050565b73ffffffffffffffffffffffffffffffffffffffff871660009081526005602052604081205460ff16611110576040517f08c379a000000000000000000000000000000000000000000000000000000000815260206004820152600f60248201527f756e737570706f72746564204e46540000000000000000000000000000000000604482015260640161053b565b8484101561117a576040517f08c379a000000000000000000000000000000000000000000000000000000000815260206004820152600d60248201527f696c6c6567616c20707269636500000000000000000000000000000000000000604482015260640161053b565b438310156111e4576040517f08c379a000000000000000000000000000000000000000000000000000000000815260206004820152601360248201527f696c6c6567616c20737461727420626c6f636b00000000000000000000000000604482015260640161053b565b88156112e5576040517f42842e0e0000000000000000000000000000000000000000000000000000000081523360048201523060248201526044810188905273ffffffffffffffffffffffffffffffffffffffff8916906342842e0e90606401600060405180830381600087803b15801561125e57600080fd5b505af1158015611272573d6000803e3d6000fd5b50505050856001146112e0576040517f08c379a000000000000000000000000000000000000000000000000000000000815260206004820152601460248201527f696c6c6567616c20746f6b656e20616d6f756e74000000000000000000000000604482015260640161053b565b611387565b6040517ff242432a000000000000000000000000000000000000000000000000000000008152336004820152306024820152604481018890526064810187905260a06084820152600060a482015273ffffffffffffffffffffffffffffffffffffffff89169063f242432a9060c401600060405180830381600087803b15801561136e57600080fd5b505af1158015611382573d6000803e3d6000fd5b505050505b6003805490600061139783612100565b9091555050604080516101a0810190915280600081526020018881526020018973ffffffffffffffffffffffffffffffffffffffff1681526020018a151581526020013373ffffffffffffffffffffffffffffffffffffffff16815260200187815260200186815260200185815260200184815260200183815260200187815260200160008152602001600067ffffffffffffffff811115611462577f4e487b7100000000000000000000000000000000000000000000000000000000600052604160045260246000fd5b60405190808252806020026020018201604052801561148b578160200160208202803683370190505b5090526003546000908152600460208190526040909120825181549192909183917fffffffffffffffffffffffffffffffffffffffffffffffffffffffffffffff0090911690600190849081111561150c577f4e487b7100000000000000000000000000000000000000000000000000000000600052602160045260246000fd5b0217905550602082810151600183015560408301516002830180546060860151151574010000000000000000000000000000000000000000027fffffffffffffffffffffff00000000000000000000000000000000000000000090911673ffffffffffffffffffffffffffffffffffffffff938416171790556080840151600384018054919092167fffffffffffffffffffffffff00000000000000000000000000000000000000009190911617905560a0830151600483015560c0830151600583015560e08301516006830155610100830151600783015561012083015160088301556101408301516009830155610160830151600a830155610180830151805161161e92600b8501920190611af2565b50506003546040805191825233602083015273ffffffffffffffffffffffffffffffffffffffff8b169082015260608101899052608081018890527f28bdd220a5ddfba439a908328fd4d9d0f0b413a04dd63ebe4753bfc7f2bb39b6915060a00160405180910390a15060035498975050505050505050565b60008181526004602052604081206003815460ff1660048111156116e4577f4e487b7100000000000000000000000000000000000000000000000000000000600052602160045260246000fd5b1415801561172f57506004815460ff16600481111561172c577f4e487b7100000000000000000000000000000000000000000000000000000000600052602160045260246000fd5b14155b611795576040517f08c379a000000000000000000000000000000000000000000000000000000000815260206004820152600e60248201527f63616e63656c6564206f72646572000000000000000000000000000000000000604482015260640161053b565b6002815460ff1660048111156117d4577f4e487b7100000000000000000000000000000000000000000000000000000000600052602160045260246000fd5b14156117e457600a015492915050565b806008015481600701546117f8919061205b565b431115611809576005015492915050565b806007015443101561181f576006015492915050565b6008810154600782015461183390436120e9565b8260050154836006015461184791906120e9565b61185191906120ac565b61185b9190612073565b816006015461186a91906120e9565b9392505050565b60003073ffffffffffffffffffffffffffffffffffffffff881614611898575060006118bb565b507ff23a6e61000000000000000000000000000000000000000000000000000000005b9695505050505050565b60005473ffffffffffffffffffffffffffffffffffffffff163314611946576040517f08c379a000000000000000000000000000000000000000000000000000000000815260206004820181905260248201527f4f776e61626c653a2063616c6c6572206973206e6f7420746865206f776e6572604482015260640161053b565b73ffffffffffffffffffffffffffffffffffffffff81166119e9576040517f08c379a000000000000000000000000000000000000000000000000000000000815260206004820152602660248201527f4f776e61626c653a206e6577206f776e657220697320746865207a65726f206160448201527f6464726573730000000000000000000000000000000000000000000000000000606482015260840161053b565b6000805460405173ffffffffffffffffffffffffffffffffffffffff808516939216917f8be0079c531659141344cd1fd0a4f28419497f9722a3daafe3b4186f6b6457e091a3600080547fffffffffffffffffffffffff00000000000000000000000000000000000000001673ffffffffffffffffffffffffffffffffffffffff92909216919091179055565b600081815260046020908152604091829020600b01805483518184028101840190945280845260609392830182828015611ae657602002820191906000526020600020905b815473ffffffffffffffffffffffffffffffffffffffff168152600190910190602001808311611abb575b50505050509050919050565b828054828255906000526020600020908101928215611b6c579160200282015b82811115611b6c57825182547fffffffffffffffffffffffff00000000000000000000000000000000000000001673ffffffffffffffffffffffffffffffffffffffff909116178255602090920191600190910190611b12565b50611b78929150611b7c565b5090565b5b80821115611b785760008155600101611b7d565b803573ffffffffffffffffffffffffffffffffffffffff81168114611bb557600080fd5b919050565b60008083601f840112611bcb578182fd5b50813567ffffffffffffffff811115611be2578182fd5b6020830191508360208260051b8501011115611bfd57600080fd5b9250929050565b80358015158114611bb557600080fd5b60008083601f840112611c25578182fd5b50813567ffffffffffffffff811115611c3c578182fd5b602083019150836020828501011115611bfd57600080fd5b600060208284031215611c65578081fd5b61186a82611b91565b60008060008060008060008060a0898b031215611c89578384fd5b611c9289611b91565b9750611ca060208a01611b91565b9650604089013567ffffffffffffffff80821115611cbc578586fd5b611cc88c838d01611bba565b909850965060608b0135915080821115611ce0578586fd5b611cec8c838d01611bba565b909650945060808b0135915080821115611d04578384fd5b50611d118b828c01611c14565b999c989b5096995094979396929594505050565b600080600080600060808688031215611d3c578081fd5b611d4586611b91565b9450611d5360208701611b91565b935060408601359250606086013567ffffffffffffffff811115611d75578182fd5b611d8188828901611c14565b969995985093965092949392505050565b60008060008060008060a08789031215611daa578182fd5b611db387611b91565b9550611dc160208801611b91565b94506040870135935060608701359250608087013567ffffffffffffffff811115611dea578283fd5b611df689828a01611c14565b979a9699509497509295939492505050565b60008060408385031215611e1a578182fd5b611e2383611b91565b9150611e3160208401611c04565b90509250929050565b600080600080600080600080610100898b031215611e56578384fd5b611e5f89611c04565b9750611e6d60208a01611b91565b979a9799505050506040860135956060810135956080820135955060a0820135945060c0820135935060e0909101359150565b600060208284031215611eb1578081fd5b81357fffffffff000000000000000000000000000000000000000000000000000000008116811461186a578182fd5b600060208284031215611ef1578081fd5b5035919050565b60008060408385031215611f0a578182fd5b50508035926020909101359150565b60008060408385031215611f2b578182fd5b505080516020909101519092909150565b6020808252825182820181905260009190848201906040850190845b81811015611f8a57835173ffffffffffffffffffffffffffffffffffffffff1683529284019291840191600101611f58565b50909695505050505050565b610180810160058e10611fd2577f4e487b7100000000000000000000000000000000000000000000000000000000600052602160045260246000fd5b8d82528c6020830152611ffd604083018d73ffffffffffffffffffffffffffffffffffffffff169052565b991515606082015273ffffffffffffffffffffffffffffffffffffffff98909816608089015260a088019690965260c087019490945260e0860192909252610100850152610120840152610140830152610160909101529392505050565b6000821982111561206e5761206e612139565b500190565b6000826120a7577f4e487b710000000000000000000000000000000000000000000000000000000081526012600452602481fd5b500490565b6000817fffffffffffffffffffffffffffffffffffffffffffffffffffffffffffffffff04831182151516156120e4576120e4612139565b500290565b6000828210156120fb576120fb612139565b500390565b60007fffffffffffffffffffffffffffffffffffffffffffffffffffffffffffffffff82141561213257612132612139565b5060010190565b7f4e487b7100000000000000000000000000000000000000000000000000000000600052601160045260246000fdfea264697066735822122077693a29a7ea55c6c9948c015b8821ef576571b481c647105b57b106da388b9d64736f6c63430008040033",
  "linkReferences": {},
  "deployedLinkReferences": {}
}